S016000050686F6E652053656375726974792E737265639C
S113000012C02CC02BC02AC029C028C0F3C026C0EF
S113001025C024C023C022C021C020C01FC01EC0D0
S11300201DC01CC01BC011241FBECFE5D4E0DEBF21
S1130030CDBF10E0A0E6B0E0E6E1F2E002C005903A
S11300400D92A236B107D9F720E0A2E6B0E001C0D4
S11300501D92A636B207E1F725D0DBC0D1CF83E0ED
S113006090E032B3209162002095232322BB2FE736
S113007038E341E0215030404040E1F700C0000047
S113008032B320916200232B22BB2FE738E341E0F7
S1130090215030404040E1F700C000000197009734
S11300A001F7089517BA8FEF81BB91E094BB88BB29
S11300B012BA15BAA99A00E010E0C1E0D0E0FF241A
S11300C0F394999946C080916500811134C01092CF
S11300D06200802F912F26B330E0082E02C03595A0
S11300E027950A94E2F720FD14C0409162009E0116
S11300F0082E02C0220F331F0A94E2F7342F322B4A
S1130100309362002095309164002323209364008F
S11301100CC0409164009E01082E02C0220F331FC0
S11301200A94E2F7242B209364000196843091050D
S113013091F695DF0BC096B39F7080916400981779
S113014029F080916300882309F450C0F09265007F
S1130150B8CF96B380916000981709F441C010920B
S11301606200802F912F26B330E0082E02C035950F
S113017027950A94E2F720FD1DC040916000242FCA
S113018030E0082E02C0359527950A94E2F720FF47
S113019022C09E01082E02C0220F331F0A94E2F7E8
S11301A030916200322B30936200209542234093B9
S11301B0600011C042B39E01082E02C0220F331FFB
S11301C00A94E2F7322F3095342332BB3091600029
S11301D0232B2093600001968430910521F63FDFA4
S11301E0A89810926500109263006BCFA89AF092C1
S11301F06300ACCF1F920F920FB60F921124989BFD
S113020002C0A89801C0A89A0F900FBE0F901F902B
S10902101895F894FFCFDD
S1050216FF00E3
S9030000FC
