S016000050686F6E652053656375726974792E737265639C
S113000012C021C020C01FC01EC01DC0F1C01BC033
S11300101AC019C018C017C016C015C014C013C028
S113002012C011C010C011241FBECFE5D4E0DEBF42
S1130030CDBF20E0A0E6B0E001C01D92A436B20717
S1130040E1F72CD0E4C0DCCF21E030E0A90102C00C
S1130050440F551F8A95E2F7CA01409523E030E02A
S113006092B3942392BB5FE768E391E05150604000
S11300709040E1F700C0000092B3982B92BB5FE779
S113008068E391E0515060409040E1F700C0000007
S1130090215031092115310519F7089517BA8FEF49
S11300A081BB91E094BB88BB12BA15BAA99A82E4C9
S11300B09FE09BBD8ABD8EB588608EBD89B7806187
S11300C089BF8EB585608EBD7894E12CF12C01E05A
S11300D010E0DD24D394999940C08091630081118C
S11300E02EC0CE2DDF2D86B390E00C2E02C0959548
S11300F087950A94E2F780FF10C08C2F9D2FA4DF10
S113010020916200C8010C2E02C0880F991F0A9426
S1130110E2F7822B809362000DC0C8010C2E02C04E
S1130120880F991F0A94E2F78095909162008923C1
S1130130809362002196C430D105A9F60BC096B312
S11301409F7080916200981729F080916000882345
S113015009F44AC0D0926300BECF96B38091610087
S11301609817E1F1CE2DDF2D26B39D2F30E08C2F93
S11301700C2E02C0359527950A94E2F720FF19C08A
S11301802091610030E00C2E02C0359527950A9429
S1130190E2F720FD1FC058DFC8010C2E02C0880FF3
S11301A0991F0A94E2F790916100892B8093610072
S11301B011C022B3C8010C2E02C0880F991F0A94E3
S11301C0E2F78095982F922392BB90916100892346
S11301D0809361002196C430D10531F6A89810921D
S11301E063001092600077CFA89AD0926000B2CFDB
S11301F01F920F920FB60F921124989B02C0A898D9
S113020001C0A89A0F900FBE0F901F901895F894F4
S1050210FFCF1A
S9030000FC
