S016000050686F6E652053656375726974792E737265639C
S113000012C021C020C01FC01EC01DC01CC01BC008
S11300101AC019C018C017C016C015C014C013C028
S113002012C011C010C011241FBECFE5D4E0DEBF42
S1130030CDBF20E0A0E6B0E001C01D92A236B20719
S1130040E1F72CD077C0DCCF21E030E0A90102C079
S1130050440F551F8A95E2F7CA01409523E030E02A
S113006092B3942392BB5FE768E391E05150604000
S11300709040E1F700C0000092B3982B92BB5FE779
S113008068E391E0515060409040E1F700C0000007
S1130090215031092115310519F7089517BA8FEF49
S11300A081BB91E094BB88BB12BA15BAC0E0D0E022
S11300B0C12CD12C01E010E01CC026B38C2F9D2F45
S11300C030E00C2E02C0359527950A94E2F720FF04
S11300D00FC078010C2E02C0EE0CFF1C0A94E2F74C
S11300E020916000309161002E213F21232BB1F03B
S11300F02196C430D10508F326B32F7030E08091E7
S11301006000909161002817390721F0A89ACC2D3E
S1130110DD2DEFCFA898CC2DDD2DEBCF95DF809191
S1130120600090916100E82AF92AF0926100E0925F
S10B01306000DECFF894FFCF5C
S9030000FC
