:1000000012C02CC02BC02AC029C028C0EFC026C0F7
:1000100025C024C023C022C021C020C01FC01EC0D4
:100020001DC01CC01BC011241FBECFE5D4E0DEBF25
:10003000CDBF10E0A0E6B0E0EEE0F2E002C0059037
:100040000D92A236B107D9F720E0A2E6B0E001C0D8
:100050001D92A536B207E1F72CD0D7C0D1CF21E051
:1000600030E0A90102C0440F551F8A95E2F7CA018A
:10007000409523E030E092B3942392BB5FE768E3BE
:1000800091E0515060409040E1F700C0000092B311
:10009000982B92BB5FE768E391E05150604090403D
:1000A000E1F700C00000215031092115310519F791
:1000B000089517BA8FEF81BB91E094BB88BB12BA49
:1000C00015BAA99AE12CF12C01E010E0DD24D394BB
:1000D000999940C08091640081112EC0CE2DDF2DF2
:1000E00086B390E00C2E02C0959587950A94E2F7AE
:1000F00080FD11C08C2F9D2FB2DFC8010C2E02C0D5
:10010000880F991F0A94E2F78095909163008923E4
:10011000809363000CC020916300C8010C2E02C0C4
:10012000880F991F0A94E2F7822B8093630021962F
:10013000C430D105A9F60BC096B39F7080916300BF
:10014000981729F080916200882309F44BC0D0925F
:100150006400BECF96B3809160009817E9F1CE2D70
:10016000DF2D26B39D2F30E08C2F0C2E02C035954D
:1001700027950A94E2F720FD1AC02091600030E034
:100180000C2E02C0359527950A94E2F720FF20C077
:1001900066DFC8010C2E02C0880F991F0A94E2F78F
:1001A00080959091600089238093600011C022B3F4
:1001B000C8010C2E02C0880F991F0A94E2F7982FED
:1001C0009095922392BB90916000892B8093600060
:1001D0002196C430D10529F6A89810926400109297
:1001E000620076CFA89AD0926200B1CF1F920F9290
:1001F0000FB60F921124989B02C0A89801C0A89A2C
:0E0200000F900FBE0F901F901895F894FFCF2F
:02020E00FF00EF
:00000001FF
